{
  "_format": "hh-sol-artifact-1",
  "contractName": "PENT",
  "sourceName": "contracts/PENT.sol",
  "abi": [
    {
      "inputs": [
        {
          "internalType": "address[]",
          "name": "payees",
          "type": "address[]"
        },
        {
          "internalType": "uint256[]",
          "name": "shares",
          "type": "uint256[]"
        },
        {
          "internalType": "address[]",
          "name": "addresses",
          "type": "address[]"
        },
        {
          "internalType": "uint256[]",
          "name": "balances",
          "type": "uint256[]"
        },
        {
          "internalType": "uint256[]",
          "name": "fees",
          "type": "uint256[]"
        },
        {
          "internalType": "uint256",
          "name": "swapAmount",
          "type": "uint256"
        },
        {
          "internalType": "address",
          "name": "uniV2Router",
          "type": "address"
        },
        {
          "internalType": "address",
          "name": "_nodeRewardManagement",
          "type": "address"
        }
      ],
      "stateMutability": "nonpayable",
      "type": "constructor"
    },
    {
      "anonymous": false,
      "inputs": [
        {
          "indexed": true,
          "internalType": "address",
          "name": "owner",
          "type": "address"
        },
        {
          "indexed": true,
          "internalType": "address",
          "name": "spender",
          "type": "address"
        },
        {
          "indexed": false,
          "internalType": "uint256",
          "name": "value",
          "type": "uint256"
        }
      ],
      "name": "Approval",
      "type": "event"
    },
    {
      "anonymous": false,
      "inputs": [
        {
          "indexed": true,
          "internalType": "contract IERC20",
          "name": "token",
          "type": "address"
        },
        {
          "indexed": false,
          "internalType": "address",
          "name": "to",
          "type": "address"
        },
        {
          "indexed": false,
          "internalType": "uint256",
          "name": "amount",
          "type": "uint256"
        }
      ],
      "name": "ERC20PaymentReleased",
      "type": "event"
    },
    {
      "anonymous": false,
      "inputs": [
        {
          "indexed": true,
          "internalType": "address",
          "name": "newLiquidityWallet",
          "type": "address"
        },
        {
          "indexed": true,
          "internalType": "address",
          "name": "oldLiquidityWallet",
          "type": "address"
        }
      ],
      "name": "LiquidityWalletUpdated",
      "type": "event"
    },
    {
      "anonymous": false,
      "inputs": [
        {
          "indexed": true,
          "internalType": "address",
          "name": "previousOwner",
          "type": "address"
        },
        {
          "indexed": true,
          "internalType": "address",
          "name": "newOwner",
          "type": "address"
        }
      ],
      "name": "OwnershipTransferred",
      "type": "event"
    },
    {
      "anonymous": false,
      "inputs": [
        {
          "indexed": false,
          "internalType": "address",
          "name": "account",
          "type": "address"
        },
        {
          "indexed": false,
          "internalType": "uint256",
          "name": "shares",
          "type": "uint256"
        }
      ],
      "name": "PayeeAdded",
      "type": "event"
    },
    {
      "anonymous": false,
      "inputs": [
        {
          "indexed": false,
          "internalType": "address",
          "name": "from",
          "type": "address"
        },
        {
          "indexed": false,
          "internalType": "uint256",
          "name": "amount",
          "type": "uint256"
        }
      ],
      "name": "PaymentReceived",
      "type": "event"
    },
    {
      "anonymous": false,
      "inputs": [
        {
          "indexed": false,
          "internalType": "address",
          "name": "to",
          "type": "address"
        },
        {
          "indexed": false,
          "internalType": "uint256",
          "name": "amount",
          "type": "uint256"
        }
      ],
      "name": "PaymentReleased",
      "type": "event"
    },
    {
      "anonymous": false,
      "inputs": [
        {
          "indexed": true,
          "internalType": "address",
          "name": "pair",
          "type": "address"
        },
        {
          "indexed": true,
          "internalType": "bool",
          "name": "value",
          "type": "bool"
        }
      ],
      "name": "SetAutomatedMarketMakerPair",
      "type": "event"
    },
    {
      "anonymous": false,
      "inputs": [
        {
          "indexed": false,
          "internalType": "uint256",
          "name": "tokensSwapped",
          "type": "uint256"
        },
        {
          "indexed": false,
          "internalType": "uint256",
          "name": "ethReceived",
          "type": "uint256"
        },
        {
          "indexed": false,
          "internalType": "uint256",
          "name": "tokensIntoLiqudity",
          "type": "uint256"
        }
      ],
      "name": "SwapAndLiquify",
      "type": "event"
    },
    {
      "anonymous": false,
      "inputs": [
        {
          "indexed": true,
          "internalType": "address",
          "name": "from",
          "type": "address"
        },
        {
          "indexed": true,
          "internalType": "address",
          "name": "to",
          "type": "address"
        },
        {
          "indexed": false,
          "internalType": "uint256",
          "name": "value",
          "type": "uint256"
        }
      ],
      "name": "Transfer",
      "type": "event"
    },
    {
      "anonymous": false,
      "inputs": [
        {
          "indexed": true,
          "internalType": "address",
          "name": "newAddress",
          "type": "address"
        },
        {
          "indexed": true,
          "internalType": "address",
          "name": "oldAddress",
          "type": "address"
        }
      ],
      "name": "UpdateUniswapV2Router",
      "type": "event"
    },
    {
      "inputs": [
        {
          "internalType": "address",
          "name": "",
          "type": "address"
        }
      ],
      "name": "_isBlacklisted",
      "outputs": [
        {
          "internalType": "bool",
          "name": "",
          "type": "bool"
        }
      ],
      "stateMutability": "view",
      "type": "function"
    },
    {
      "inputs": [
        {
          "internalType": "address",
          "name": "",
          "type": "address"
        }
      ],
      "name": "_isExcluded",
      "outputs": [
        {
          "internalType": "bool",
          "name": "",
          "type": "bool"
        }
      ],
      "stateMutability": "view",
      "type": "function"
    },
    {
      "inputs": [
        {
          "internalType": "address",
          "name": "owner",
          "type": "address"
        },
        {
          "internalType": "address",
          "name": "spender",
          "type": "address"
        }
      ],
      "name": "allowance",
      "outputs": [
        {
          "internalType": "uint256",
          "name": "",
          "type": "uint256"
        }
      ],
      "stateMutability": "view",
      "type": "function"
    },
    {
      "inputs": [
        {
          "internalType": "address",
          "name": "spender",
          "type": "address"
        },
        {
          "internalType": "uint256",
          "name": "amount",
          "type": "uint256"
        }
      ],
      "name": "approve",
      "outputs": [
        {
          "internalType": "bool",
          "name": "",
          "type": "bool"
        }
      ],
      "stateMutability": "nonpayable",
      "type": "function"
    },
    {
      "inputs": [
        {
          "internalType": "address",
          "name": "",
          "type": "address"
        }
      ],
      "name": "automatedMarketMakerPairs",
      "outputs": [
        {
          "internalType": "bool",
          "name": "",
          "type": "bool"
        }
      ],
      "stateMutability": "view",
      "type": "function"
    },
    {
      "inputs": [
        {
          "internalType": "address",
          "name": "account",
          "type": "address"
        }
      ],
      "name": "balanceOf",
      "outputs": [
        {
          "internalType": "uint256",
          "name": "",
          "type": "uint256"
        }
      ],
      "stateMutability": "view",
      "type": "function"
    },
    {
      "inputs": [
        {
          "internalType": "address",
          "name": "account",
          "type": "address"
        },
        {
          "internalType": "bool",
          "name": "value",
          "type": "bool"
        }
      ],
      "name": "blacklistMalicious",
      "outputs": [],
      "stateMutability": "nonpayable",
      "type": "function"
    },
    {
      "inputs": [],
      "name": "cashoutAll",
      "outputs": [],
      "stateMutability": "nonpayable",
      "type": "function"
    },
    {
      "inputs": [],
      "name": "cashoutFee",
      "outputs": [
        {
          "internalType": "uint256",
          "name": "",
          "type": "uint256"
        }
      ],
      "stateMutability": "view",
      "type": "function"
    },
    {
      "inputs": [
        {
          "internalType": "uint256",
          "name": "blocktime",
          "type": "uint256"
        }
      ],
      "name": "cashoutReward",
      "outputs": [],
      "stateMutability": "nonpayable",
      "type": "function"
    },
    {
      "inputs": [
        {
          "internalType": "uint256",
          "name": "newInterval",
          "type": "uint256"
        }
      ],
      "name": "changeClaimInterval",
      "outputs": [],
      "stateMutability": "nonpayable",
      "type": "function"
    },
    {
      "inputs": [
        {
          "internalType": "uint256",
          "name": "value",
          "type": "uint256"
        }
      ],
      "name": "changeMaxTxAmount",
      "outputs": [],
      "stateMutability": "nonpayable",
      "type": "function"
    },
    {
      "inputs": [
        {
          "internalType": "uint256[]",
          "name": "newNodeFees",
          "type": "uint256[]"
        }
      ],
      "name": "changeNodeFees",
      "outputs": [],
      "stateMutability": "nonpayable",
      "type": "function"
    },
    {
      "inputs": [
        {
          "internalType": "uint256",
          "name": "newNodePriceOne",
          "type": "uint256"
        },
        {
          "internalType": "uint256",
          "name": "newNodePriceFive",
          "type": "uint256"
        },
        {
          "internalType": "uint256",
          "name": "newNodePriceTen",
          "type": "uint256"
        }
      ],
      "name": "changeNodePrices",
      "outputs": [],
      "stateMutability": "nonpayable",
      "type": "function"
    },
    {
      "inputs": [
        {
          "internalType": "bool",
          "name": "value",
          "type": "bool"
        }
      ],
      "name": "changeProtectSale",
      "outputs": [],
      "stateMutability": "nonpayable",
      "type": "function"
    },
    {
      "inputs": [
        {
          "internalType": "uint256",
          "name": "newPriceOne",
          "type": "uint256"
        },
        {
          "internalType": "uint256",
          "name": "newPriceFive",
          "type": "uint256"
        },
        {
          "internalType": "uint256",
          "name": "newPriceTen",
          "type": "uint256"
        },
        {
          "internalType": "uint256",
          "name": "newPriceOMEGA",
          "type": "uint256"
        }
      ],
      "name": "changeRewardsPerMinute",
      "outputs": [],
      "stateMutability": "nonpayable",
      "type": "function"
    },
    {
      "inputs": [
        {
          "internalType": "bool",
          "name": "newVal",
          "type": "bool"
        }
      ],
      "name": "changeSwapLiquify",
      "outputs": [],
      "stateMutability": "nonpayable",
      "type": "function"
    },
    {
      "inputs": [
        {
          "internalType": "string",
          "name": "name",
          "type": "string"
        },
        {
          "internalType": "uint256",
          "name": "stakeDays",
          "type": "uint256"
        },
        {
          "internalType": "uint256",
          "name": "_type",
          "type": "uint256"
        }
      ],
      "name": "createNodeWithStakePosition",
      "outputs": [],
      "stateMutability": "nonpayable",
      "type": "function"
    },
    {
      "inputs": [
        {
          "internalType": "string",
          "name": "name",
          "type": "string"
        },
        {
          "internalType": "uint256",
          "name": "_type",
          "type": "uint256"
        }
      ],
      "name": "createNodeWithTokens",
      "outputs": [],
      "stateMutability": "nonpayable",
      "type": "function"
    },
    {
      "inputs": [],
      "name": "deadWallet",
      "outputs": [
        {
          "internalType": "address",
          "name": "",
          "type": "address"
        }
      ],
      "stateMutability": "view",
      "type": "function"
    },
    {
      "inputs": [],
      "name": "decimals",
      "outputs": [
        {
          "internalType": "uint8",
          "name": "",
          "type": "uint8"
        }
      ],
      "stateMutability": "view",
      "type": "function"
    },
    {
      "inputs": [
        {
          "internalType": "address",
          "name": "spender",
          "type": "address"
        },
        {
          "internalType": "uint256",
          "name": "subtractedValue",
          "type": "uint256"
        }
      ],
      "name": "decreaseAllowance",
      "outputs": [
        {
          "internalType": "bool",
          "name": "",
          "type": "bool"
        }
      ],
      "stateMutability": "nonpayable",
      "type": "function"
    },
    {
      "inputs": [
        {
          "internalType": "uint256",
          "name": "_method",
          "type": "uint256"
        },
        {
          "internalType": "string",
          "name": "name",
          "type": "string"
        }
      ],
      "name": "fusionNode",
      "outputs": [],
      "stateMutability": "nonpayable",
      "type": "function"
    },
    {
      "inputs": [],
      "name": "futurFee",
      "outputs": [
        {
          "internalType": "uint256",
          "name": "",
          "type": "uint256"
        }
      ],
      "stateMutability": "view",
      "type": "function"
    },
    {
      "inputs": [],
      "name": "getClaimInterval",
      "outputs": [
        {
          "internalType": "uint256",
          "name": "",
          "type": "uint256"
        }
      ],
      "stateMutability": "view",
      "type": "function"
    },
    {
      "inputs": [],
      "name": "getFusionCost",
      "outputs": [
        {
          "internalType": "uint256",
          "name": "",
          "type": "uint256"
        },
        {
          "internalType": "uint256",
          "name": "",
          "type": "uint256"
        },
        {
          "internalType": "uint256",
          "name": "",
          "type": "uint256"
        }
      ],
      "stateMutability": "view",
      "type": "function"
    },
    {
      "inputs": [],
      "name": "getNodeCounts",
      "outputs": [
        {
          "internalType": "uint256",
          "name": "",
          "type": "uint256"
        },
        {
          "internalType": "uint256",
          "name": "",
          "type": "uint256"
        },
        {
          "internalType": "uint256",
          "name": "",
          "type": "uint256"
        },
        {
          "internalType": "uint256",
          "name": "",
          "type": "uint256"
        }
      ],
      "stateMutability": "view",
      "type": "function"
    },
    {
      "inputs": [
        {
          "internalType": "address",
          "name": "account",
          "type": "address"
        }
      ],
      "name": "getNodeNumberOf",
      "outputs": [
        {
          "internalType": "uint256",
          "name": "",
          "type": "uint256"
        }
      ],
      "stateMutability": "view",
      "type": "function"
    },
    {
      "inputs": [
        {
          "internalType": "uint256",
          "name": "_type",
          "type": "uint256"
        },
        {
          "internalType": "bool",
          "name": "isFusion",
          "type": "bool"
        }
      ],
      "name": "getNodePrice",
      "outputs": [
        {
          "internalType": "uint256",
          "name": "",
          "type": "uint256"
        }
      ],
      "stateMutability": "view",
      "type": "function"
    },
    {
      "inputs": [],
      "name": "getNodePrices",
      "outputs": [
        {
          "internalType": "uint256",
          "name": "",
          "type": "uint256"
        },
        {
          "internalType": "uint256",
          "name": "",
          "type": "uint256"
        },
        {
          "internalType": "uint256",
          "name": "",
          "type": "uint256"
        }
      ],
      "stateMutability": "view",
      "type": "function"
    },
    {
      "inputs": [],
      "name": "getNodesCreatime",
      "outputs": [
        {
          "internalType": "string",
          "name": "",
          "type": "string"
        }
      ],
      "stateMutability": "view",
      "type": "function"
    },
    {
      "inputs": [],
      "name": "getNodesExpireTime",
      "outputs": [
        {
          "internalType": "string",
          "name": "",
          "type": "string"
        }
      ],
      "stateMutability": "view",
      "type": "function"
    },
    {
      "inputs": [],
      "name": "getNodesInfo",
      "outputs": [
        {
          "internalType": "string",
          "name": "",
          "type": "string"
        }
      ],
      "stateMutability": "view",
      "type": "function"
    },
    {
      "inputs": [],
      "name": "getNodesLastClaims",
      "outputs": [
        {
          "internalType": "string",
          "name": "",
          "type": "string"
        }
      ],
      "stateMutability": "view",
      "type": "function"
    },
    {
      "inputs": [],
      "name": "getNodesName",
      "outputs": [
        {
          "internalType": "string",
          "name": "",
          "type": "string"
        }
      ],
      "stateMutability": "view",
      "type": "function"
    },
    {
      "inputs": [],
      "name": "getNodesRewards",
      "outputs": [
        {
          "internalType": "string",
          "name": "",
          "type": "string"
        }
      ],
      "stateMutability": "view",
      "type": "function"
    },
    {
      "inputs": [],
      "name": "getNodesType",
      "outputs": [
        {
          "internalType": "string",
          "name": "",
          "type": "string"
        }
      ],
      "stateMutability": "view",
      "type": "function"
    },
    {
      "inputs": [],
      "name": "getRewardAmount",
      "outputs": [
        {
          "internalType": "uint256",
          "name": "",
          "type": "uint256"
        }
      ],
      "stateMutability": "view",
      "type": "function"
    },
    {
      "inputs": [
        {
          "internalType": "address",
          "name": "account",
          "type": "address"
        }
      ],
      "name": "getRewardAmountOf",
      "outputs": [
        {
          "internalType": "uint256",
          "name": "",
          "type": "uint256"
        }
      ],
      "stateMutability": "view",
      "type": "function"
    },
    {
      "inputs": [],
      "name": "getRewardsPerMinute",
      "outputs": [
        {
          "internalType": "uint256",
          "name": "",
          "type": "uint256"
        },
        {
          "internalType": "uint256",
          "name": "",
          "type": "uint256"
        },
        {
          "internalType": "uint256",
          "name": "",
          "type": "uint256"
        }
      ],
      "stateMutability": "view",
      "type": "function"
    },
    {
      "inputs": [
        {
          "internalType": "address",
          "name": "staker",
          "type": "address"
        }
      ],
      "name": "getStakePositions",
      "outputs": [
        {
          "components": [
            {
              "internalType": "uint256",
              "name": "creationTime",
              "type": "uint256"
            },
            {
              "internalType": "uint256",
              "name": "expireTime",
              "type": "uint256"
            },
            {
              "internalType": "uint256",
              "name": "balance",
              "type": "uint256"
            },
            {
              "internalType": "uint256",
              "name": "id",
              "type": "uint256"
            }
          ],
          "internalType": "struct PENT.StakePosition[]",
          "name": "positions",
          "type": "tuple[]"
        }
      ],
      "stateMutability": "view",
      "type": "function"
    },
    {
      "inputs": [],
      "name": "getTaxForFusion",
      "outputs": [
        {
          "internalType": "uint256",
          "name": "",
          "type": "uint256"
        },
        {
          "internalType": "uint256",
          "name": "",
          "type": "uint256"
        },
        {
          "internalType": "uint256",
          "name": "",
          "type": "uint256"
        }
      ],
      "stateMutability": "view",
      "type": "function"
    },
    {
      "inputs": [],
      "name": "getTotalNodesCreated",
      "outputs": [
        {
          "internalType": "uint256",
          "name": "",
          "type": "uint256"
        }
      ],
      "stateMutability": "view",
      "type": "function"
    },
    {
      "inputs": [
        {
          "internalType": "address",
          "name": "spender",
          "type": "address"
        },
        {
          "internalType": "uint256",
          "name": "addedValue",
          "type": "uint256"
        }
      ],
      "name": "increaseAllowance",
      "outputs": [
        {
          "internalType": "bool",
          "name": "",
          "type": "bool"
        }
      ],
      "stateMutability": "nonpayable",
      "type": "function"
    },
    {
      "inputs": [],
      "name": "liquidityPoolFee",
      "outputs": [
        {
          "internalType": "uint256",
          "name": "",
          "type": "uint256"
        }
      ],
      "stateMutability": "view",
      "type": "function"
    },
    {
      "inputs": [
        {
          "internalType": "uint256",
          "name": "amount",
          "type": "uint256"
        }
      ],
      "name": "manualsend",
      "outputs": [],
      "stateMutability": "nonpayable",
      "type": "function"
    },
    {
      "inputs": [
        {
          "internalType": "uint256",
          "name": "amount",
          "type": "uint256"
        }
      ],
      "name": "manualswap",
      "outputs": [],
      "stateMutability": "nonpayable",
      "type": "function"
    },
    {
      "inputs": [],
      "name": "maxTxAmount",
      "outputs": [
        {
          "internalType": "uint256",
          "name": "",
          "type": "uint256"
        }
      ],
      "stateMutability": "view",
      "type": "function"
    },
    {
      "inputs": [],
      "name": "name",
      "outputs": [
        {
          "internalType": "string",
          "name": "",
          "type": "string"
        }
      ],
      "stateMutability": "view",
      "type": "function"
    },
    {
      "inputs": [],
      "name": "nodeRewardManagement",
      "outputs": [
        {
          "internalType": "contract INODERewardManagement",
          "name": "",
          "type": "address"
        }
      ],
      "stateMutability": "view",
      "type": "function"
    },
    {
      "inputs": [],
      "name": "owner",
      "outputs": [
        {
          "internalType": "address",
          "name": "",
          "type": "address"
        }
      ],
      "stateMutability": "view",
      "type": "function"
    },
    {
      "inputs": [
        {
          "internalType": "uint256",
          "name": "index",
          "type": "uint256"
        }
      ],
      "name": "payee",
      "outputs": [
        {
          "internalType": "address",
          "name": "",
          "type": "address"
        }
      ],
      "stateMutability": "view",
      "type": "function"
    },
    {
      "inputs": [
        {
          "internalType": "address payable",
          "name": "account",
          "type": "address"
        }
      ],
      "name": "release",
      "outputs": [],
      "stateMutability": "nonpayable",
      "type": "function"
    },
    {
      "inputs": [
        {
          "internalType": "contract IERC20",
          "name": "token",
          "type": "address"
        },
        {
          "internalType": "address",
          "name": "account",
          "type": "address"
        }
      ],
      "name": "release",
      "outputs": [],
      "stateMutability": "nonpayable",
      "type": "function"
    },
    {
      "inputs": [
        {
          "internalType": "contract IERC20",
          "name": "token",
          "type": "address"
        },
        {
          "internalType": "address",
          "name": "account",
          "type": "address"
        }
      ],
      "name": "released",
      "outputs": [
        {
          "internalType": "uint256",
          "name": "",
          "type": "uint256"
        }
      ],
      "stateMutability": "view",
      "type": "function"
    },
    {
      "inputs": [
        {
          "internalType": "address",
          "name": "account",
          "type": "address"
        }
      ],
      "name": "released",
      "outputs": [
        {
          "internalType": "uint256",
          "name": "",
          "type": "uint256"
        }
      ],
      "stateMutability": "view",
      "type": "function"
    },
    {
      "inputs": [],
      "name": "renounceOwnership",
      "outputs": [],
      "stateMutability": "nonpayable",
      "type": "function"
    },
    {
      "inputs": [],
      "name": "rewardsFee",
      "outputs": [
        {
          "internalType": "uint256",
          "name": "",
          "type": "uint256"
        }
      ],
      "stateMutability": "view",
      "type": "function"
    },
    {
      "inputs": [],
      "name": "rewardsPool",
      "outputs": [
        {
          "internalType": "address",
          "name": "",
          "type": "address"
        }
      ],
      "stateMutability": "view",
      "type": "function"
    },
    {
      "inputs": [
        {
          "internalType": "address",
          "name": "pair",
          "type": "address"
        },
        {
          "internalType": "bool",
          "name": "value",
          "type": "bool"
        }
      ],
      "name": "setAutomatedMarketMakerPair",
      "outputs": [],
      "stateMutability": "nonpayable",
      "type": "function"
    },
    {
      "inputs": [
        {
          "internalType": "address",
          "name": "account",
          "type": "address"
        },
        {
          "internalType": "bool",
          "name": "value",
          "type": "bool"
        }
      ],
      "name": "setIsExcluded",
      "outputs": [],
      "stateMutability": "nonpayable",
      "type": "function"
    },
    {
      "inputs": [
        {
          "internalType": "uint256",
          "name": "_nodeCountForLesser",
          "type": "uint256"
        },
        {
          "internalType": "uint256",
          "name": "_nodeCountForCommon",
          "type": "uint256"
        },
        {
          "internalType": "uint256",
          "name": "_nodeCountForLegendary",
          "type": "uint256"
        }
      ],
      "name": "setNodeCountForFusion",
      "outputs": [],
      "stateMutability": "nonpayable",
      "type": "function"
    },
    {
      "inputs": [
        {
          "internalType": "uint256",
          "name": "_taxForLesser",
          "type": "uint256"
        },
        {
          "internalType": "uint256",
          "name": "_taxForCommon",
          "type": "uint256"
        },
        {
          "internalType": "uint256",
          "name": "_taxForLegendary",
          "type": "uint256"
        }
      ],
      "name": "setTaxForFusion",
      "outputs": [],
      "stateMutability": "nonpayable",
      "type": "function"
    },
    {
      "inputs": [
        {
          "internalType": "address",
          "name": "account",
          "type": "address"
        }
      ],
      "name": "shares",
      "outputs": [
        {
          "internalType": "uint256",
          "name": "",
          "type": "uint256"
        }
      ],
      "stateMutability": "view",
      "type": "function"
    },
    {
      "inputs": [
        {
          "internalType": "address",
          "name": "",
          "type": "address"
        },
        {
          "internalType": "uint256",
          "name": "",
          "type": "uint256"
        }
      ],
      "name": "stakePositions",
      "outputs": [
        {
          "internalType": "uint256",
          "name": "creationTime",
          "type": "uint256"
        },
        {
          "internalType": "uint256",
          "name": "expireTime",
          "type": "uint256"
        },
        {
          "internalType": "uint256",
          "name": "balance",
          "type": "uint256"
        },
        {
          "internalType": "uint256",
          "name": "id",
          "type": "uint256"
        }
      ],
      "stateMutability": "view",
      "type": "function"
    },
    {
      "inputs": [],
      "name": "stakingPool",
      "outputs": [
        {
          "internalType": "address",
          "name": "",
          "type": "address"
        }
      ],
      "stateMutability": "view",
      "type": "function"
    },
    {
      "inputs": [],
      "name": "swapTokensAmount",
      "outputs": [
        {
          "internalType": "uint256",
          "name": "",
          "type": "uint256"
        }
      ],
      "stateMutability": "view",
      "type": "function"
    },
    {
      "inputs": [],
      "name": "symbol",
      "outputs": [
        {
          "internalType": "string",
          "name": "",
          "type": "string"
        }
      ],
      "stateMutability": "view",
      "type": "function"
    },
    {
      "inputs": [],
      "name": "toggleFusionMode",
      "outputs": [],
      "stateMutability": "nonpayable",
      "type": "function"
    },
    {
      "inputs": [],
      "name": "totalFees",
      "outputs": [
        {
          "internalType": "uint256",
          "name": "",
          "type": "uint256"
        }
      ],
      "stateMutability": "view",
      "type": "function"
    },
    {
      "inputs": [
        {
          "internalType": "contract IERC20",
          "name": "token",
          "type": "address"
        }
      ],
      "name": "totalReleased",
      "outputs": [
        {
          "internalType": "uint256",
          "name": "",
          "type": "uint256"
        }
      ],
      "stateMutability": "view",
      "type": "function"
    },
    {
      "inputs": [],
      "name": "totalReleased",
      "outputs": [
        {
          "internalType": "uint256",
          "name": "",
          "type": "uint256"
        }
      ],
      "stateMutability": "view",
      "type": "function"
    },
    {
      "inputs": [],
      "name": "totalShares",
      "outputs": [
        {
          "internalType": "uint256",
          "name": "",
          "type": "uint256"
        }
      ],
      "stateMutability": "view",
      "type": "function"
    },
    {
      "inputs": [],
      "name": "totalSupply",
      "outputs": [
        {
          "internalType": "uint256",
          "name": "",
          "type": "uint256"
        }
      ],
      "stateMutability": "view",
      "type": "function"
    },
    {
      "inputs": [
        {
          "internalType": "address",
          "name": "recipient",
          "type": "address"
        },
        {
          "internalType": "uint256",
          "name": "amount",
          "type": "uint256"
        }
      ],
      "name": "transfer",
      "outputs": [
        {
          "internalType": "bool",
          "name": "",
          "type": "bool"
        }
      ],
      "stateMutability": "nonpayable",
      "type": "function"
    },
    {
      "inputs": [
        {
          "internalType": "address",
          "name": "sender",
          "type": "address"
        },
        {
          "internalType": "address",
          "name": "recipient",
          "type": "address"
        },
        {
          "internalType": "uint256",
          "name": "amount",
          "type": "uint256"
        }
      ],
      "name": "transferFrom",
      "outputs": [
        {
          "internalType": "bool",
          "name": "",
          "type": "bool"
        }
      ],
      "stateMutability": "nonpayable",
      "type": "function"
    },
    {
      "inputs": [
        {
          "internalType": "address",
          "name": "newOwner",
          "type": "address"
        }
      ],
      "name": "transferOwnership",
      "outputs": [],
      "stateMutability": "nonpayable",
      "type": "function"
    },
    {
      "inputs": [],
      "name": "uniswapV2Pair",
      "outputs": [
        {
          "internalType": "address",
          "name": "",
          "type": "address"
        }
      ],
      "stateMutability": "view",
      "type": "function"
    },
    {
      "inputs": [],
      "name": "uniswapV2Router",
      "outputs": [
        {
          "internalType": "contract IUniswapV2Router02",
          "name": "",
          "type": "address"
        }
      ],
      "stateMutability": "view",
      "type": "function"
    },
    {
      "inputs": [
        {
          "internalType": "uint256",
          "name": "value",
          "type": "uint256"
        }
      ],
      "name": "updateCashoutFee",
      "outputs": [],
      "stateMutability": "nonpayable",
      "type": "function"
    },
    {
      "inputs": [
        {
          "internalType": "uint256",
          "name": "value",
          "type": "uint256"
        }
      ],
      "name": "updateFuturFee",
      "outputs": [],
      "stateMutability": "nonpayable",
      "type": "function"
    },
    {
      "inputs": [
        {
          "internalType": "uint256",
          "name": "value",
          "type": "uint256"
        }
      ],
      "name": "updateLiquidityFee",
      "outputs": [],
      "stateMutability": "nonpayable",
      "type": "function"
    },
    {
      "inputs": [
        {
          "internalType": "uint256",
          "name": "value",
          "type": "uint256"
        }
      ],
      "name": "updateRewardsFee",
      "outputs": [],
      "stateMutability": "nonpayable",
      "type": "function"
    },
    {
      "inputs": [
        {
          "internalType": "address payable",
          "name": "wall",
          "type": "address"
        }
      ],
      "name": "updateRewardsWall",
      "outputs": [],
      "stateMutability": "nonpayable",
      "type": "function"
    },
    {
      "inputs": [
        {
          "internalType": "uint256",
          "name": "value",
          "type": "uint256"
        }
      ],
      "name": "updateRwSwapFee",
      "outputs": [],
      "stateMutability": "nonpayable",
      "type": "function"
    },
    {
      "inputs": [
        {
          "internalType": "address payable",
          "name": "wall",
          "type": "address"
        }
      ],
      "name": "updateStakingPool",
      "outputs": [],
      "stateMutability": "nonpayable",
      "type": "function"
    },
    {
      "inputs": [
        {
          "internalType": "uint256",
          "name": "newVal",
          "type": "uint256"
        }
      ],
      "name": "updateSwapTokensAmount",
      "outputs": [],
      "stateMutability": "nonpayable",
      "type": "function"
    },
    {
      "inputs": [
        {
          "internalType": "address",
          "name": "newAddress",
          "type": "address"
        }
      ],
      "name": "updateUniswapV2Router",
      "outputs": [],
      "stateMutability": "nonpayable",
      "type": "function"
    },
    {
      "inputs": [
        {
          "internalType": "address payable",
          "name": "wall",
          "type": "address"
        }
      ],
      "name": "updateVaultWall",
      "outputs": [],
      "stateMutability": "nonpayable",
      "type": "function"
    },
    {
      "inputs": [],
      "name": "vault",
      "outputs": [
        {
          "internalType": "address",
          "name": "",
          "type": "address"
        }
      ],
      "stateMutability": "view",
      "type": "function"
    },
    {
      "inputs": [
        {
          "internalType": "uint256",
          "name": "index",
          "type": "uint256"
        }
      ],
      "name": "withdrawStakingPosition",
      "outputs": [],
      "stateMutability": "nonpayable",
      "type": "function"
    },
    {
      "stateMutability": "payable",
      "type": "receive"
    }
  ],
  "bytecode": "0x60a0604052601180546001600160a01b0319908116731a4c49cf5d526edaf8955c176ed3ca5531d1270e179091556012805490911661dead1790556019805461ffff1916610100179055601f805460ff1916905568015af1d78b58c4000060205560006022553480156200007257600080fd5b50604051620073d1380380620073d1833981016040819052620000959162001237565b6040805180820182526004808252631411539560e21b6020808401828152855180870190965292855284015281518b938b93929091620000d8916003916200102a565b508051620000ee9060049060208401906200102a565b5050600580546001600160a01b031916339081179091556040519091506000907f8be0079c531659141344cd1fd0a4f28419497f9722a3daafe3b4186f6b6457e0908290a38051825114620001a55760405162461bcd60e51b815260206004820152603260248201527f5061796d656e7453706c69747465723a2070617965657320616e6420736861726044820152710cae640d8cadccee8d040dad2e6dac2e8c6d60731b60648201526084015b60405180910390fd5b6000825111620001f85760405162461bcd60e51b815260206004820152601a60248201527f5061796d656e7453706c69747465723a206e6f2070617965657300000000000060448201526064016200019c565b60005b82518110156200027c57620002678382815181106200022a57634e487b7160e01b600052603260045260246000fd5b60200260200101518383815181106200025357634e487b7160e01b600052603260045260246000fd5b602002602001015162000cd660201b60201c565b80620002738162001414565b915050620001fb565b5050506001600160601b0319606082901b166080526001600160a01b038216620002e95760405162461bcd60e51b815260206004820152601560248201527f524f555445522043414e4e4f54204245205a45524f000000000000000000000060448201526064016200019c565b60008290506000816001600160a01b031663c45a01556040518163ffffffff1660e01b815260040160206040518083038186803b1580156200032a57600080fd5b505afa1580156200033f573d6000803e3d6000fd5b505050506040513d601f19601f820116820180604052508101906200036591906200121a565b6001600160a01b031663c9c6539630846001600160a01b031663ad5c46486040518163ffffffff1660e01b815260040160206040518083038186803b158015620003ae57600080fd5b505afa158015620003c3573d6000803e3d6000fd5b505050506040513d601f19601f82011682018060405250810190620003e991906200121a565b6040516001600160e01b031960e085901b1681526001600160a01b03928316600482015291166024820152604401602060405180830381600087803b1580156200043257600080fd5b505af115801562000447573d6000803e3d6000fd5b505050506040513d601f19601f820116820180604052508101906200046d91906200121a565b600d80546001600160a01b038086166001600160a01b031992831617909255600e805492841692909116919091179055885190915088906002908110620004c457634e487b7160e01b600052603260045260246000fd5b6020026020010151600f60006101000a8154816001600160a01b0302191690836001600160a01b03160217905550876003815181106200051457634e487b7160e01b600052603260045260246000fd5b6020026020010151601060006101000a8154816001600160a01b0302191690836001600160a01b03160217905550876005815181106200056457634e487b7160e01b600052603260045260246000fd5b6020908102919091010151601180546001600160a01b0319166001600160a01b03928316179055600f541615801590620005a857506010546001600160a01b031615155b620005f65760405162461bcd60e51b815260206004820152601d60248201527f5641554c542026205245574152442043414e4e4f54204245205a45524f00000060448201526064016200019c565b856000815181106200061857634e487b7160e01b600052603260045260246000fd5b60200260200101516000141580156200065b5750856001815181106200064e57634e487b7160e01b600052603260045260246000fd5b6020026020010151600014155b8015620006925750856002815181106200068557634e487b7160e01b600052603260045260246000fd5b6020026020010151600014155b8015620006c9575085600381518110620006bc57634e487b7160e01b600052603260045260246000fd5b6020026020010151600014155b620007175760405162461bcd60e51b815260206004820152601460248201527f434f4e5354523a204665657320657175616c203000000000000000000000000060448201526064016200019c565b856000815181106200073957634e487b7160e01b600052603260045260246000fd5b6020026020010151601581905550856001815181106200076957634e487b7160e01b600052603260045260246000fd5b6020026020010151601381905550856002815181106200079957634e487b7160e01b600052603260045260246000fd5b602002602001015160148190555085600381518110620007c957634e487b7160e01b600052603260045260246000fd5b602002602001015160178190555085600481518110620007f957634e487b7160e01b600052603260045260246000fd5b602090810291909101810151601855604080516103c081018252676f05b59d3b20000081526765b96429fb9d000092810192909252675c9099a92bdb0000908201526753444835ec58000060608201526749f7f6c2acd5000060808201526740cf2c41dd13000060a0820152673782dace9d90000060c08201526735d887716084000060e0820152673451bb06933900006101008201526732a767a9562d00006101208201526731209b3e88e20000610140820152672f7647e14bd60000610160820152672def7b767e8b0000610180820152672c452819417f00006101a0820152672abe5bae743400006101c08201526729140851372800006101e082015267278d3be669dd00006102008201526725e2e8892cd1000061022082015267245c1c1e5f8600006102408201526722b1c8c1227a0000610260820152671feb3dd06765fed4610280820152671d24b2dfac5200006102a0820152671a5e27eef13e00006102c08201526717979cfe362a00006102e08201526714d1120d7b16000061030082015267120a871cc0020000610320820152670f43fc2c04ee0064610340820152670c7d713b49da00006103608201526709b6e64a8ec600006103808201526706f05b59d3b200006103a0820152620009db90601b90601e620010b9565b5062000a1560155462000a0160145460135462000ec460201b62003c681790919060201c565b62000ec460201b62003c681790919060201c565b60165587511580159062000a2a575060008751115b62000a8a5760405162461bcd60e51b815260206004820152602960248201527f434f4e5354523a206164647265737365732061727261792067726561746572206044820152687468616e207a65726f60b81b60648201526084016200019c565b865188511462000ae75760405162461bcd60e51b815260206004820152602160248201527f434f4e5354523a20616464726573736573206c656e677468206d69736d6174636044820152600d60fb1b60648201526084016200019c565b878760005b825181101562000be2576001601d600085848151811062000b1d57634e487b7160e01b600052603260045260246000fd5b60200260200101516001600160a01b03166001600160a01b0316815260200190815260200160002060006101000a81548160ff02191690831515021790555062000bcd83828151811062000b8157634e487b7160e01b600052603260045260246000fd5b602002602001015183838151811062000baa57634e487b7160e01b600052603260045260246000fd5b6020026020010151670de0b6b3a764000062000bc79190620013b5565b62000f2e565b8062000bd98162001414565b91505062000aec565b506002546a10ebe24297ce6ff43c00001462000c4d5760405162461bcd60e51b8152602060048201526024808201527f434f4e5354523a20746f74616c537570706c7920657175616c203230206d696c6044820152633634b7b760e11b60648201526084016200019c565b6000871162000c9f5760405162461bcd60e51b815260206004820152601d60248201527f434f4e5354523a205377617020616d6f756e7420696e636f727265637400000060448201526064016200019c565b62000cb387670de0b6b3a7640000620013b5565b601a555050601f805460ff19166001179055506200145e98505050505050505050565b6001600160a01b03821662000d435760405162461bcd60e51b815260206004820152602c60248201527f5061796d656e7453706c69747465723a206163636f756e74206973207468652060448201526b7a65726f206164647265737360a01b60648201526084016200019c565b6000811162000d955760405162461bcd60e51b815260206004820152601d60248201527f5061796d656e7453706c69747465723a2073686172657320617265203000000060448201526064016200019c565b6001600160a01b0382166000908152600860205260409020541562000e115760405162461bcd60e51b815260206004820152602b60248201527f5061796d656e7453706c69747465723a206163636f756e7420616c726561647960448201526a206861732073686172657360a81b60648201526084016200019c565b600a8054600181019091557fc65a7bb8d6351c1cf70c95a316cc6a92839c986682d98bc35f958f4883f9d2a80180546001600160a01b0319166001600160a01b038416908117909155600090815260086020526040902081905560065462000e7b9082906200139a565b600655604080516001600160a01b0384168152602081018390527f40c340f65e17194d14ddddb073d3c9f888e3cb52b5aae0c6c7706b4fbc905fac910160405180910390a15050565b60008062000ed383856200139a565b90508381101562000f275760405162461bcd60e51b815260206004820152601b60248201527f536166654d6174683a206164646974696f6e206f766572666c6f77000000000060448201526064016200019c565b9392505050565b6001600160a01b03821662000f865760405162461bcd60e51b815260206004820152601f60248201527f45524332303a206d696e7420746f20746865207a65726f20616464726573730060448201526064016200019c565b62000fa28160025462000ec460201b62003c681790919060201c565b6002556001600160a01b0382166000908152602081815260409091205462000fd591839062003c6862000ec4821b17901c565b6001600160a01b038316600081815260208181526040808320949094559251848152919290917fddf252ad1be2c89b69c2b068fc378daa952ba7f163c4a11628f55a4df523b3ef910160405180910390a35050565b8280546200103890620013d7565b90600052602060002090601f0160209004810192826200105c5760008555620010a7565b82601f106200107757805160ff1916838001178555620010a7565b82800160010185558215620010a7579182015b82811115620010a75782518255916020019190600101906200108a565b50620010b592915062001102565b5090565b828054828255906000526020600020908101928215620010a7579160200282015b82811115620010a757825182906001600160401b0316905591602001919060010190620010da565b5b80821115620010b5576000815560010162001103565b80516001600160a01b03811681146200113157600080fd5b919050565b600082601f83011262001147578081fd5b81516020620011606200115a8362001374565b62001341565b80838252828201915082860187848660051b890101111562001180578586fd5b855b85811015620011a957620011968262001119565b8452928401929084019060010162001182565b5090979650505050505050565b600082601f830112620011c7578081fd5b81516020620011da6200115a8362001374565b80838252828201915082860187848660051b8901011115620011fa578586fd5b855b85811015620011a957815184529284019290840190600101620011fc565b6000602082840312156200122c578081fd5b62000f278262001119565b600080600080600080600080610100898b03121562001254578384fd5b88516001600160401b03808211156200126b578586fd5b620012798c838d0162001136565b995060208b01519150808211156200128f578586fd5b6200129d8c838d01620011b6565b985060408b0151915080821115620012b3578586fd5b620012c18c838d0162001136565b975060608b0151915080821115620012d7578586fd5b620012e58c838d01620011b6565b965060808b0151915080821115620012fb578586fd5b506200130a8b828c01620011b6565b94505060a089015192506200132260c08a0162001119565b91506200133260e08a0162001119565b90509295985092959890939650565b604051601f8201601f191681016001600160401b03811182821017156200136c576200136c62001448565b604052919050565b60006001600160401b0382111562001390576200139062001448565b5060051b60200190565b60008219821115620013b057620013b062001432565b500190565b6000816000190483118215151615620013d257620013d262001432565b500290565b600181811c90821680620013ec57607f821691505b602082108114156200140e57634e487b7160e01b600052602260045260246000fd5b50919050565b60006000198214156200142b576200142b62001432565b5060010190565b634e487b7160e01b600052601160045260246000fd5b634e487b7160e01b600052604160045260246000fd5b60805160601c615e20620015b1600039600081816109a301528181610f900152818161104801528181611117015281816111910152818161135b01528181611413015281816118670152818161191f0152818161198601528181611bd401528181611ccb01528181611d8301528181611e5c01528181611f1f01528181611f5f01528181611ff001528181612081015281816124ee0152818161268801528181612862015281816128c601528181612aa001528181612b7001528181612eb6015281816130c8015281816131e0015281816132a70152818161335f015281816133cd015281816134850152818161354e015281816136060152818161367c015281816136eb015281816137a30152818161395c01528181613a1401528181613b4e01528181613bd501528181613c11015281816144790152818161461101528181614a6d0152614c6d0152615e206000f3fe60806040526004361061040f5760003560e01c806370a082311161021c57806370a08231146109db578063715018a6146109fb578063796f838e14610a10578063823349b314610a3057806385141a7714610a45578063881dce6014610a6557806388c41d7c14610a855780638b83209b14610aa55780638bc9c7b014610ac55780638c0b5e2214610ae55780638da5cb5b14610afb5780638e67566314610b10578063921e245514610b305780639349c47d14610b5057806394471c4214610b7057806395d89b4114610b855780639852595c14610b9a5780639a7a23d614610bba578063a04ec53914610bda578063a457c2d714610c07578063a52a39f614610c27578063a9059cbb14610c47578063a99bc40914610c67578063ab57476114610c87578063b62496f514610c9d578063b96392c114610ccd578063bbc6799814610ced578063bdf24a5314610d0d578063bef92f8514610d22578063cb0ade8114610d37578063ce44c65a14610d4c578063ce7c2ac214610d6c578063cedeb59014610da2578063cf8e2f8e14610db7578063d79779b214610dd7578063d892934214610df7578063dd62ed3e14610e17578063e12e3ca514610e5d578063e33b7de314610e7d578063e94941b114610e92578063ee1afdbf14610eb2578063f2fde38b14610ec7578063f65b302014610ee7578063f74c993414610efc578063f7b1efb614610f1c578063fbfa77cf14610f3157600080fd5b80623f43d2146104545780630359fea91461047f57806303caf422146104ac5780630454e3c1146104ce57806306fdde03146104f2578063084a6bff14610507578063095ea7b31461052757806309a69f57146105575780630b285b1f1461057a5780630c56ae3b146105aa57806313114a9d146105ca5780631694505e146105e057806318160ddd1461060057806319165587146106155780631ad34a4f146106355780631cdd3be31461065557806323b872dd146106855780632403bd77146106a55780632bb14e1d146106d5578063313ce567146106eb57806339509351146107075780633a98ef39146107275780633c33f9a71461073c5780633f7b97bb1461075c578063406072a91461077157806345c186911461079157806348b75044146107a657806349bd5a5e146107c6578063507d379c146107e6578063545579731461080657806354f12f1f1461081b578063583bd7a6146108315780635b0d4674146108515780635d512ac7146108665780635e795b56146108865780635f1c3182146108a65780635f2fe034146108bc578063642d7e6e146108dc57806365b8dbc0146108f157806365bfe430146109115780636770474b14610931578063677daa57146109515780636815a91c14610971578063697e2f8e146109915780636d9ae0be146109c557600080fd5b3661044f577f6ef95f06320e7a25a04a175ca677b7052bdd97131872c2192525a629f51be7703334604051610445929190615713565b60405180910390a1005b600080fd5b34801561046057600080fd5b50610469610f51565b60405161047691906157d1565b60405180910390f35b34801561048b57600080fd5b5060105461049f906001600160a01b031681565b60405161047691906156ff565b3480156104b857600080fd5b506104cc6104c7366004615651565b6110d6565b005b3480156104da57600080fd5b506104e361118a565b60405161047693929190615b90565b3480156104fe57600080fd5b5061046961122b565b34801561051357600080fd5b506104cc610522366004615561565b6112bd565b34801561053357600080fd5b5061054761054236600461534f565b61130e565b6040519015158152602001610476565b34801561056357600080fd5b5061056c611325565b604051908152602001610476565b34801561058657600080fd5b50610547610595366004615272565b601d6020526000908152604090205460ff1681565b3480156105b657600080fd5b5060115461049f906001600160a01b031681565b3480156105d657600080fd5b5061056c60165481565b3480156105ec57600080fd5b50600d5461049f906001600160a01b031681565b34801561060c57600080fd5b5060025461056c565b34801561062157600080fd5b506104cc610630366004615272565b611498565b34801561064157600080fd5b506104cc610650366004615561565b6115a7565b34801561066157600080fd5b50610547610670366004615272565b601c6020526000908152604090205460ff1681565b34801561069157600080fd5b506105476106a03660046152e2565b611620565b3480156106b157600080fd5b506106c56106c036600461534f565b61168a565b6040516104769493929190615ba6565b3480156106e157600080fd5b5061056c60135481565b3480156106f757600080fd5b5060405160128152602001610476565b34801561071357600080fd5b5061054761072236600461534f565b6116d0565b34801561073357600080fd5b5060065461056c565b34801561074857600080fd5b506104cc610757366004615561565b611706565b34801561076857600080fd5b50610469611831565b34801561077d57600080fd5b5061056c61078c366004615459565b611954565b34801561079d57600080fd5b506104e361197f565b3480156107b257600080fd5b506104cc6107c1366004615459565b6119dd565b3480156107d257600080fd5b50600e5461049f906001600160a01b031681565b3480156107f257600080fd5b506104cc6108013660046155f9565b611b93565b34801561081257600080fd5b506104cc611c44565b34801561082757600080fd5b5061056c60145481565b34801561083d57600080fd5b506104cc61084c366004615421565b611c51565b34801561085d57600080fd5b50610469611c95565b34801561087257600080fd5b506104cc61088136600461537a565b611db8565b34801561089257600080fd5b5061056c6108a1366004615591565b611e3b565b3480156108b257600080fd5b5061056c601a5481565b3480156108c857600080fd5b506104cc6108d73660046155f9565b611ede565b3480156108e857600080fd5b506104e3611f58565b3480156108fd57600080fd5b506104cc61090c366004615272565b612110565b34801561091d57600080fd5b506104cc61092c366004615561565b6123ac565b34801561093d57600080fd5b506104cc61094c366004615561565b612718565b34801561095d57600080fd5b506104cc61096c366004615561565b612747565b34801561097d57600080fd5b506104cc61098c366004615561565b612776565b34801561099d57600080fd5b5061049f7f000000000000000000000000000000000000000000000000000000000000000081565b3480156109d157600080fd5b5061056c60175481565b3480156109e757600080fd5b5061056c6109f6366004615272565b6127a5565b348015610a0757600080fd5b506104cc6127c0565b348015610a1c57600080fd5b506104cc610a2b366004615561565b612822565b348015610a3c57600080fd5b5061056c6128c2565b348015610a5157600080fd5b5060125461049f906001600160a01b031681565b348015610a7157600080fd5b506104cc610a80366004615561565b61291d565b348015610a9157600080fd5b506104cc610aa0366004615561565b61296c565b348015610ab157600080fd5b5061049f610ac0366004615561565b6129b0565b348015610ad157600080fd5b506104cc610ae0366004615561565b6129ee565b348015610af157600080fd5b5061056c60205481565b348015610b0757600080fd5b5061049f612a1d565b348015610b1c57600080fd5b506104cc610b2b366004615561565b612a2c565b348015610b3c57600080fd5b506104cc610b4b3660046155b5565b612a70565b348015610b5c57600080fd5b506104cc610b6b366004615272565b612b20565b348015610b7c57600080fd5b5061056c612b6c565b348015610b9157600080fd5b50610469612bc7565b348015610ba657600080fd5b5061056c610bb5366004615272565b612bd6565b348015610bc657600080fd5b506104cc610bd5366004615322565b612bf1565b348015610be657600080fd5b50610bfa610bf5366004615272565b612c25565b604051610476919061576d565b348015610c1357600080fd5b50610547610c2236600461534f565b612cc2565b348015610c3357600080fd5b506104cc610c42366004615516565b612d11565b348015610c5357600080fd5b50610547610c6236600461534f565b613143565b348015610c7357600080fd5b506104cc610c82366004615272565b613150565b348015610c9357600080fd5b5061056c60155481565b348015610ca957600080fd5b50610547610cb8366004615272565b601e6020526000908152604090205460ff1681565b348015610cd957600080fd5b5061056c610ce8366004615272565b61319c565b348015610cf957600080fd5b506104cc610d083660046154d4565b613265565b348015610d1957600080fd5b50610469613271565b348015610d2e57600080fd5b506106c5613394565b348015610d4357600080fd5b50610469613518565b348015610d5857600080fd5b506104cc610d673660046155f9565b61363b565b348015610d7857600080fd5b5061056c610d87366004615272565b6001600160a01b031660009081526008602052604090205490565b348015610dae57600080fd5b506104696136b5565b348015610dc357600080fd5b506104cc610dd2366004615322565b6137d8565b348015610de357600080fd5b5061056c610df2366004615272565b61382d565b348015610e0357600080fd5b506104cc610e12366004615322565b613848565b348015610e2357600080fd5b5061056c610e323660046152aa565b6001600160a01b03918216600090815260016020908152604080832093909416825291909152205490565b348015610e6957600080fd5b506104cc610e78366004615421565b61389d565b348015610e8957600080fd5b5060075461056c565b348015610e9e57600080fd5b506104cc610ead366004615272565b6138da565b348015610ebe57600080fd5b50610469613926565b348015610ed357600080fd5b506104cc610ee2366004615272565b613a49565b348015610ef357600080fd5b506104cc613b22565b348015610f0857600080fd5b5061056c610f17366004615272565b613bbb565b348015610f2857600080fd5b506104e3613c0a565b348015610f3d57600080fd5b50600f5461049f906001600160a01b031681565b606033610f795760405162461bcd60e51b8152600401610f7090615883565b60405180910390fd5b60405163041ac82b60e41b81526001600160a01b037f000000000000000000000000000000000000000000000000000000000000000016906341ac82b090610fc59033906004016156ff565b60206040518083038186803b158015610fdd57600080fd5b505afa158015610ff1573d6000803e3d6000fd5b505050506040513d601f19601f82011682018060405250810190611015919061543d565b6110315760405162461bcd60e51b8152600401610f7090615827565b6040516329a87a8560e21b81526001600160a01b037f0000000000000000000000000000000000000000000000000000000000000000169063a6a1ea149061107d9033906004016156ff565b60006040518083038186803b15801561109557600080fd5b505afa1580156110a9573d6000803e3d6000fd5b505050506040513d6000823e601f3d908101601f191682016040526110d1919081019061546b565b905090565b6005546001600160a01b031633146111005760405162461bcd60e51b8152600401610f7090615a5e565b60405163020d4f6760e51b81526001600160a01b037f000000000000000000000000000000000000000000000000000000000000000016906341a9ece090611152908790879087908790600401615ba6565b600060405180830381600087803b15801561116c57600080fd5b505af1158015611180573d6000803e3d6000fd5b5050505050505050565b60008060007f00000000000000000000000000000000000000000000000000000000000000006001600160a01b031663dc22baa96040518163ffffffff1660e01b815260040160606040518083038186803b1580156111e857600080fd5b505afa1580156111fc573d6000803e3d6000fd5b505050506040513d601f19601f820116820180604052508101906112209190615624565b925092509250909192565b60606003805461123a90615cb2565b80601f016020809104026020016040519081016040528092919081815260200182805461126690615cb2565b80156112b35780601f10611288576101008083540402835291602001916112b3565b820191906000526020600020905b81548152906001019060200180831161129657829003601f168201915b5050505050905090565b6005546001600160a01b031633146112e75760405162461bcd60e51b8152600401610f7090615a5e565b60138190556015546014546113089190611302908490613c68565b90613c68565b60165550565b600061131b338484613cc5565b5060015b92915050565b6000336113445760405162461bcd60e51b8152600401610f7090615883565b60405163041ac82b60e41b81526001600160a01b037f000000000000000000000000000000000000000000000000000000000000000016906341ac82b0906113909033906004016156ff565b60206040518083038186803b1580156113a857600080fd5b505afa1580156113bc573d6000803e3d6000fd5b505050506040513d601f19601f820116820180604052508101906113e0919061543d565b6113fc5760405162461bcd60e51b8152600401610f7090615827565b6040516330cd31af60e11b81526001600160a01b037f0000000000000000000000000000000000000000000000000000000000000000169063619a635e906114489033906004016156ff565b60206040518083038186803b15801561146057600080fd5b505afa158015611474573d6000803e3d6000fd5b505050506040513d601f19601f820116820180604052508101906110d19190615579565b6001600160a01b0381166000908152600860205260409020546114cd5760405162461bcd60e51b8152600401610f70906158b1565b60006114d860075490565b6114e29047615c18565b905060006114f983836114f486612bd6565b613dea565b9050806115185760405162461bcd60e51b8152600401610f70906158f7565b6001600160a01b03831660009081526009602052604081208054839290611540908490615c18565b9250508190555080600760008282546115599190615c18565b9091555061156990508382613e30565b7fdf20fd1e76bc69d672e4814fafb2c449bba3a5369d8359adf9e05e6fde87b056838260405161159a929190615713565b60405180910390a1505050565b6005546001600160a01b031633146115d15760405162461bcd60e51b8152600401610f7090615a5e565b478111156115dc5750475b6115e4612a1d565b6001600160a01b03166108fc829081150290604051600060405180830381858888f1935050505015801561161c573d6000803e3d6000fd5b5050565b600061162d848484613f46565b61167f843361167a85604051806060016040528060288152602001615d7e602891396001600160a01b038a166000908152600160209081526040808320338452909152902054919061418f565b613cc5565b5060015b9392505050565b602160205281600052604060002081815481106116a657600080fd5b60009182526020909120600490910201805460018201546002830154600390930154919450925084565b3360008181526001602090815260408083206001600160a01b0387168452909152812054909161131b91859061167a9086613c68565b33600081815260216020526040812080548490811061173557634e487b7160e01b600052603260045260246000fd5b9060005260206000209060040201905042816001015411156117a95760405162461bcd60e51b815260206004820152602760248201527f4e6f7420656c696769626c6520746f20636c61696d207468697320706f7369746044820152661a5bdb881e595d60ca1b6064820152608401610f70565b60008160020154116118095760405162461bcd60e51b815260206004820152602360248201527f4e6f7468696e6720746f20636c61696d2066726f6d207468697320706f73697460448201526234b7b760e91b6064820152608401610f70565b600281018054600090915560115461182b906001600160a01b031633836141c9565b50505050565b6060336118505760405162461bcd60e51b8152600401610f7090615883565b60405163041ac82b60e41b81526001600160a01b037f000000000000000000000000000000000000000000000000000000000000000016906341ac82b09061189c9033906004016156ff565b60206040518083038186803b1580156118b457600080fd5b505afa1580156118c8573d6000803e3d6000fd5b505050506040513d601f19601f820116820180604052508101906118ec919061543d565b6119085760405162461bcd60e51b8152600401610f7090615827565b60405163c87aefa160e01b81526001600160a01b037f0000000000000000000000000000000000000000000000000000000000000000169063c87aefa19061107d9033906004016156ff565b6001600160a01b039182166000908152600c6020908152604080832093909416825291909152205490565b60008060007f00000000000000000000000000000000000000000000000000000000000000006001600160a01b031663013c2b5e6040518163ffffffff1660e01b815260040160606040518083038186803b1580156111e857600080fd5b6001600160a01b038116600090815260086020526040902054611a125760405162461bcd60e51b8152600401610f70906158b1565b6000611a1d8361382d565b6040516370a0823160e01b81526001600160a01b038516906370a0823190611a499030906004016156ff565b60206040518083038186803b158015611a6157600080fd5b505afa158015611a75573d6000803e3d6000fd5b505050506040513d601f19601f82011682018060405250810190611a999190615579565b611aa39190615c18565b90506000611ab683836114f48787611954565b905080611ad55760405162461bcd60e51b8152600401610f70906158f7565b6001600160a01b038085166000908152600c6020908152604080832093871683529290529081208054839290611b0c908490615c18565b90915550506001600160a01b0384166000908152600b602052604081208054839290611b39908490615c18565b90915550611b4a90508484836142d2565b836001600160a01b03167f3be5b7a71e84ed12875d241991c70855ac5817d847039e17a9d895c1ceb0f18a8483604051611b85929190615713565b60405180910390a250505050565b6005546001600160a01b03163314611bbd5760405162461bcd60e51b8152600401610f7090615a5e565b60405163141f4de760e21b81526001600160a01b037f0000000000000000000000000000000000000000000000000000000000000000169063507d379c90611c0d90869086908690600401615b90565b600060405180830381600087803b158015611c2757600080fd5b505af1158015611c3b573d6000803e3d6000fd5b50505050505050565b33611c4e81614328565b50565b6005546001600160a01b03163314611c7b5760405162461bcd60e51b8152600401610f7090615a5e565b601980549115156101000261ff0019909216919091179055565b606033611cb45760405162461bcd60e51b8152600401610f7090615883565b60405163041ac82b60e41b81526001600160a01b037f000000000000000000000000000000000000000000000000000000000000000016906341ac82b090611d009033906004016156ff565b60206040518083038186803b158015611d1857600080fd5b505afa158015611d2c573d6000803e3d6000fd5b505050506040513d601f19601f82011682018060405250810190611d50919061543d565b611d6c5760405162461bcd60e51b8152600401610f7090615827565b60405163251c4fd760e11b81526001600160a01b037f00000000000000000000000000000000000000000000000000000000000000001690634a389fae9061107d9033906004016156ff565b6005546001600160a01b03163314611de25760405162461bcd60e51b8152600401610f7090615a5e565b8051601e14611e285760405162461bcd60e51b81526020600482015260126024820152714d7573742068617665203330206974656d7360701b6044820152606401610f70565b805161161c90601b9060208401906151c1565b604051632f3cadab60e11b81526004810183905281151560248201526000907f00000000000000000000000000000000000000000000000000000000000000006001600160a01b031690635e795b569060440160206040518083038186803b158015611ea657600080fd5b505afa158015611eba573d6000803e3d6000fd5b505050506040513d601f19601f820116820180604052508101906116839190615579565b6005546001600160a01b03163314611f085760405162461bcd60e51b8152600401610f7090615a5e565b6040516317cbf80d60e21b81526001600160a01b037f00000000000000000000000000000000000000000000000000000000000000001690635f2fe03490611c0d90869086908690600401615b90565b60008060007f00000000000000000000000000000000000000000000000000000000000000006001600160a01b0316633cfe2f656040518163ffffffff1660e01b815260040160206040518083038186803b158015611fb657600080fd5b505afa158015611fca573d6000803e3d6000fd5b505050506040513d601f19601f82011682018060405250810190611fee9190615579565b7f00000000000000000000000000000000000000000000000000000000000000006001600160a01b0316633b4308f46040518163ffffffff1660e01b815260040160206040518083038186803b15801561204757600080fd5b505afa15801561205b573d6000803e3d6000fd5b505050506040513d601f19601f8201168201806040525081019061207f9190615579565b7f00000000000000000000000000000000000000000000000000000000000000006001600160a01b0316636ad583606040518163ffffffff1660e01b815260040160206040518083038186803b1580156120d857600080fd5b505afa1580156120ec573d6000803e3d6000fd5b505050506040513d601f19601f820116820180604052508101906112209190615579565b6005546001600160a01b0316331461213a5760405162461bcd60e51b8152600401610f7090615a5e565b600d546001600160a01b03828116911614156121a95760405162461bcd60e51b815260206004820152602860248201527f544b4e3a2054686520726f7574657220616c7265616479206861732074686174604482015267206164647265737360c01b6064820152608401610f70565b600d546040516001600160a01b03918216918316907f8fc842bbd331dfa973645f4ed48b11683d501ebf1352708d77a5da2ab49a576e90600090a3600d80546001600160a01b0319166001600160a01b0383169081179091556040805163c45a015560e01b815290516000929163c45a0155916004808301926020929190829003018186803b15801561223b57600080fd5b505afa15801561224f573d6000803e3d6000fd5b505050506040513d601f19601f82011682018060405250810190612273919061528e565b6001600160a01b031663c9c6539630600d60009054906101000a90046001600160a01b03166001600160a01b031663ad5c46486040518163ffffffff1660e01b815260040160206040518083038186803b1580156122d057600080fd5b505afa1580156122e4573d6000803e3d6000fd5b505050506040513d601f19601f82011682018060405250810190612308919061528e565b6040516001600160e01b031960e085901b1681526001600160a01b03928316600482015291166024820152604401602060405180830381600087803b15801561235057600080fd5b505af1158015612364573d6000803e3d6000fd5b505050506040513d601f19601f82011682018060405250810190612388919061528e565b600e80546001600160a01b0319166001600160a01b03929092169190911790555050565b33806124085760405162461bcd60e51b815260206004820152602560248201527f435348543a20206372656174696f6e2066726f6d20746865207a65726f206164604482015264647265737360d81b6064820152608401610f70565b6001600160a01b0381166000908152601c602052604090205460ff16156124415760405162461bcd60e51b8152600401610f7090615942565b600f546001600160a01b0382811691161480159061246d57506010546001600160a01b03828116911614155b6124d45760405162461bcd60e51b815260206004820152603260248201527f435348543a207661756c7420616e642072657761726473506f6f6c2063616e6e6044820152716f7420636173686f7574207265776172647360701b6064820152608401610f70565b6040516329b8573160e21b81526000906001600160a01b037f0000000000000000000000000000000000000000000000000000000000000000169063a6e15cc4906125259085908790600401615713565b60206040518083038186803b15801561253d57600080fd5b505afa158015612551573d6000803e3d6000fd5b505050506040513d601f19601f820116820180604052508101906125759190615579565b9050600081116125de5760405162461bcd60e51b815260206004820152602e60248201527f435348543a20596f7520646f6e2774206861766520656e6f756768207265776160448201526d1c99081d1bc818d85cda081bdd5d60921b6064820152608401610f70565b600061260060646125fa6017548561464690919063ffffffff16565b906146c5565b905061260c8282614704565b601954909250610100900460ff16801561262857506000601754115b1561265a57601054612644906001600160a01b031630836141c9565b600f5461265a906001600160a01b031682614746565b601054612671906001600160a01b031684846141c9565b60405163376db80160e11b81526001600160a01b037f00000000000000000000000000000000000000000000000000000000000000001690636edb7002906126bf9086908890600401615713565b602060405180830381600087803b1580156126d957600080fd5b505af11580156126ed573d6000803e3d6000fd5b505050506040513d601f19601f820116820180604052508101906127119190615579565b5050505050565b6005546001600160a01b031633146127425760405162461bcd60e51b8152600401610f7090615a5e565b601a55565b6005546001600160a01b031633146127715760405162461bcd60e51b8152600401610f7090615a5e565b602055565b6005546001600160a01b031633146127a05760405162461bcd60e51b8152600401610f7090615a5e565b601755565b6001600160a01b031660009081526020819052604090205490565b6005546001600160a01b031633146127ea5760405162461bcd60e51b8152600401610f7090615a5e565b6005546040516000916001600160a01b031690600080516020615da6833981519152908390a3600580546001600160a01b0319169055565b6005546001600160a01b0316331461284c5760405162461bcd60e51b8152600401610f7090615a5e565b604051633ee278b960e21b8152600481018290527f00000000000000000000000000000000000000000000000000000000000000006001600160a01b03169063fb89e2e490602401600060405180830381600087803b1580156128ae57600080fd5b505af1158015612711573d6000803e3d6000fd5b60007f00000000000000000000000000000000000000000000000000000000000000006001600160a01b031663b8527aef6040518163ffffffff1660e01b815260040160206040518083038186803b15801561146057600080fd5b6005546001600160a01b031633146129475760405162461bcd60e51b8152600401610f7090615a5e565b612950306127a5565b81111561296357612960306127a5565b90505b611c4e81614795565b6005546001600160a01b031633146129965760405162461bcd60e51b8152600401610f7090615a5e565b601581905560145460135461130891839161130291613c68565b6000600a82815481106129d357634e487b7160e01b600052603260045260246000fd5b6000918252602090912001546001600160a01b031692915050565b6005546001600160a01b03163314612a185760405162461bcd60e51b8152600401610f7090615a5e565b601855565b6005546001600160a01b031690565b6005546001600160a01b03163314612a565760405162461bcd60e51b8152600401610f7090615a5e565b601481905560155460135461130891906113029084613c68565b33612a7a81614328565b604051633e6cf0d360e01b8152600481018490526001600160a01b0382811660248301527f00000000000000000000000000000000000000000000000000000000000000001690633e6cf0d390604401600060405180830381600087803b158015612ae457600080fd5b505af1158015612af8573d6000803e3d6000fd5b50505050612b1b82612b14600186613c6890919063ffffffff16565b600161491a565b505050565b6005546001600160a01b03163314612b4a5760405162461bcd60e51b8152600401610f7090615a5e565b601080546001600160a01b0319166001600160a01b0392909216919091179055565b60007f00000000000000000000000000000000000000000000000000000000000000006001600160a01b0316630b433a126040518163ffffffff1660e01b815260040160206040518083038186803b15801561146057600080fd5b60606004805461123a90615cb2565b6001600160a01b031660009081526009602052604090205490565b6005546001600160a01b03163314612c1b5760405162461bcd60e51b8152600401610f7090615a5e565b61161c8282614ce6565b6001600160a01b0381166000908152602160209081526040808320805482518185028101850190935280835260609492939192909184015b82821015612cb7578382906000526020600020906004020160405180608001604052908160008201548152602001600182015481526020016002820154815260200160038201548152505081526020019060010190612c5d565b505050509050919050565b600061131b338461167a85604051806060016040528060258152602001615dc6602591393360009081526001602090815260408083206001600160a01b038d168452909152902054919061418f565b60038351118015612d23575060208351105b612d3f5760405162461bcd60e51b8152600401610f709061584e565b3380612d5d5760405162461bcd60e51b8152600401610f7090615ad8565b6001600160a01b0381166000908152601c602052604090205460ff1615612d965760405162461bcd60e51b8152600401610f7090615a1c565b600f546001600160a01b03828116911614801590612dc257506010546001600160a01b03828116911614155b612dde5760405162461bcd60e51b8152600401610f7090615979565b60018310158015612df05750601e8311155b612e4d5760405162461bcd60e51b815260206004820152602860248201527f5374616b652074696d65206d757374206265206265747765656e203120616e64604482015267203330206461797360c01b6064820152608401610f70565b6000612e5c8462015180615c50565b90506000601b612e6d600187615c6f565b81548110612e8b57634e487b7160e01b600052603260045260246000fd5b6000918252602082200154604051632f3cadab60e11b815260048101879052602481018390529092507f00000000000000000000000000000000000000000000000000000000000000006001600160a01b031690635e795b569060440160206040518083038186803b158015612f0057600080fd5b505afa158015612f14573d6000803e3d6000fd5b505050506040513d601f19601f82011682018060405250810190612f389190615579565b9050612f448282615c18565b612f4d856127a5565b1015612f6b5760405162461bcd60e51b8152600401610f70906159d0565b6000612f76306127a5565b601a5490915081108015908190612f945750601954610100900460ff165b8015612fa3575060195460ff16155b8015612fc85750612fb2612a1d565b6001600160a01b0316866001600160a01b031614155b8015612fed57506001600160a01b0386166000908152601e602052604090205460ff16155b15613084576019805460ff19166001179055601354600090613017906064906125fa908690614646565b6010549091506130329030906001600160a01b0316836141c9565b600061304e60646125fa6014548761464690919063ffffffff16565b905061305981614dc1565b601054613077906001600160a01b0316613072306127a5565b614746565b50506019805460ff191690555b61308f8630866141c9565b6011546130a79087906001600160a01b0316856141c9565b6130b18386614e42565b604051638ce3bbf760e01b81526001600160a01b037f00000000000000000000000000000000000000000000000000000000000000001690638ce3bbf7906131069089908d908a908d9060019060040161572c565b600060405180830381600087803b15801561312057600080fd5b505af1158015613134573d6000803e3d6000fd5b50505050505050505050505050565b600061131b338484613f46565b6005546001600160a01b0316331461317a5760405162461bcd60e51b8152600401610f7090615a5e565b601180546001600160a01b0319166001600160a01b0392909216919091179055565b6005546000906001600160a01b031633146131c95760405162461bcd60e51b8152600401610f7090615a5e565b6040516330cd31af60e11b81526001600160a01b037f0000000000000000000000000000000000000000000000000000000000000000169063619a635e906132159085906004016156ff565b60206040518083038186803b15801561322d57600080fd5b505afa158015613241573d6000803e3d6000fd5b505050506040513d601f19601f8201168201806040525081019061131f9190615579565b61161c8282600061491a565b6060336132905760405162461bcd60e51b8152600401610f7090615883565b60405163041ac82b60e41b81526001600160a01b037f000000000000000000000000000000000000000000000000000000000000000016906341ac82b0906132dc9033906004016156ff565b60206040518083038186803b1580156132f457600080fd5b505afa158015613308573d6000803e3d6000fd5b505050506040513d601f19601f8201168201806040525081019061332c919061543d565b6133485760405162461bcd60e51b8152600401610f7090615827565b6040516364940ce760e11b81526001600160a01b037f0000000000000000000000000000000000000000000000000000000000000000169063c92819ce9061107d9033906004016156ff565b6000808080336133b65760405162461bcd60e51b8152600401610f7090615883565b60405163041ac82b60e41b81526001600160a01b037f000000000000000000000000000000000000000000000000000000000000000016906341ac82b0906134029033906004016156ff565b60206040518083038186803b15801561341a57600080fd5b505afa15801561342e573d6000803e3d6000fd5b505050506040513d601f19601f82011682018060405250810190613452919061543d565b61346e5760405162461bcd60e51b8152600401610f7090615827565b604051634430fdab60e11b81526001600160a01b037f00000000000000000000000000000000000000000000000000000000000000001690638861fb56906134ba9033906004016156ff565b60806040518083038186803b1580156134d257600080fd5b505afa1580156134e6573d6000803e3d6000fd5b505050506040513d601f19601f8201168201806040525081019061350a9190615682565b935093509350935090919293565b6060336135375760405162461bcd60e51b8152600401610f7090615883565b60405163041ac82b60e41b81526001600160a01b037f000000000000000000000000000000000000000000000000000000000000000016906341ac82b0906135839033906004016156ff565b60206040518083038186803b15801561359b57600080fd5b505afa1580156135af573d6000803e3d6000fd5b505050506040513d601f19601f820116820180604052508101906135d3919061543d565b6135ef5760405162461bcd60e51b8152600401610f7090615827565b6040516305a4131f60e31b81526001600160a01b037f00000000000000000000000000000000000000000000000000000000000000001690632d2098f89061107d9033906004016156ff565b6005546001600160a01b031633146136655760405162461bcd60e51b8152600401610f7090615a5e565b604051634e7eec4760e11b81526001600160a01b037f00000000000000000000000000000000000000000000000000000000000000001690639cfdd88e90611c0d90869086908690600401615b90565b6060336136d45760405162461bcd60e51b8152600401610f7090615883565b60405163041ac82b60e41b81526001600160a01b037f000000000000000000000000000000000000000000000000000000000000000016906341ac82b0906137209033906004016156ff565b60206040518083038186803b15801561373857600080fd5b505afa15801561374c573d6000803e3d6000fd5b505050506040513d601f19601f82011682018060405250810190613770919061543d565b61378c5760405162461bcd60e51b8152600401610f7090615827565b60405163cc3ad41760e01b81526001600160a01b037f0000000000000000000000000000000000000000000000000000000000000000169063cc3ad4179061107d9033906004016156ff565b6005546001600160a01b031633146138025760405162461bcd60e51b8152600401610f7090615a5e565b6001600160a01b03919091166000908152601d60205260409020805460ff1916911515919091179055565b6001600160a01b03166000908152600b602052604090205490565b6005546001600160a01b031633146138725760405162461bcd60e51b8152600401610f7090615a5e565b6001600160a01b03919091166000908152601c60205260409020805460ff1916911515919091179055565b6005546001600160a01b031633146138c75760405162461bcd60e51b8152600401610f7090615a5e565b601f805460ff1916911515919091179055565b6005546001600160a01b031633146139045760405162461bcd60e51b8152600401610f7090615a5e565b600f80546001600160a01b0319166001600160a01b0392909216919091179055565b6060336139455760405162461bcd60e51b8152600401610f7090615883565b60405163041ac82b60e41b81526001600160a01b037f000000000000000000000000000000000000000000000000000000000000000016906341ac82b0906139919033906004016156ff565b60206040518083038186803b1580156139a957600080fd5b505afa1580156139bd573d6000803e3d6000fd5b505050506040513d601f19601f820116820180604052508101906139e1919061543d565b6139fd5760405162461bcd60e51b8152600401610f7090615827565b604051632bacfd8160e11b81526001600160a01b037f00000000000000000000000000000000000000000000000000000000000000001690635759fb029061107d9033906004016156ff565b6005546001600160a01b03163314613a735760405162461bcd60e51b8152600401610f7090615a5e565b6001600160a01b038116613ad85760405162461bcd60e51b815260206004820152602660248201527f4f776e61626c653a206e6577206f776e657220697320746865207a65726f206160448201526564647265737360d01b6064820152608401610f70565b6005546040516001600160a01b03808416921690600080516020615da683398151915290600090a3600580546001600160a01b0319166001600160a01b0392909216919091179055565b6005546001600160a01b03163314613b4c5760405162461bcd60e51b8152600401610f7090615a5e565b7f00000000000000000000000000000000000000000000000000000000000000006001600160a01b031663f65b30206040518163ffffffff1660e01b8152600401600060405180830381600087803b158015613ba757600080fd5b505af115801561182b573d6000803e3d6000fd5b60405163112469f960e21b81526000906001600160a01b037f00000000000000000000000000000000000000000000000000000000000000001690634491a7e4906132159085906004016156ff565b60008060007f00000000000000000000000000000000000000000000000000000000000000006001600160a01b031663c8d527106040518163ffffffff1660e01b815260040160606040518083038186803b1580156111e857600080fd5b600080613c758385615c18565b9050838110156116835760405162461bcd60e51b815260206004820152601b60248201527a536166654d6174683a206164646974696f6e206f766572666c6f7760281b6044820152606401610f70565b6001600160a01b038316613d275760405162461bcd60e51b8152602060048201526024808201527f45524332303a20617070726f76652066726f6d20746865207a65726f206164646044820152637265737360e01b6064820152608401610f70565b6001600160a01b038216613d885760405162461bcd60e51b815260206004820152602260248201527f45524332303a20617070726f766520746f20746865207a65726f206164647265604482015261737360f01b6064820152608401610f70565b6001600160a01b0383811660008181526001602090815260408083209487168084529482529182902085905590518481527f8c5be1e5ebec7d5bd14f71427d1e84f3dd0314c0f7b2291e5b200ac8c7c3b92591015b60405180910390a3505050565b6006546001600160a01b03841660009081526008602052604081205490918391613e149086615c50565b613e1e9190615c30565b613e289190615c6f565b949350505050565b80471015613e805760405162461bcd60e51b815260206004820152601d60248201527f416464726573733a20696e73756666696369656e742062616c616e63650000006044820152606401610f70565b6000826001600160a01b03168260405160006040518083038185875af1925050503d8060008114613ecd576040519150601f19603f3d011682016040523d82523d6000602084013e613ed2565b606091505b5050905080612b1b5760405162461bcd60e51b815260206004820152603a60248201527f416464726573733a20756e61626c6520746f2073656e642076616c75652c20726044820152791958da5c1a595b9d081b585e481a185d99481c995d995c9d195960321b6064820152608401610f70565b6001600160a01b038316613f6c5760405162461bcd60e51b8152600401610f7090615a93565b6001600160a01b038216613f925760405162461bcd60e51b8152600401610f70906157e4565b6001600160a01b0383166000908152601c602052604090205460ff16158015613fd457506001600160a01b0382166000908152601c602052604090205460ff16155b6140165760405162461bcd60e51b8152602060048201526013602482015272426c61636b6c6973746564206164647265737360681b6044820152606401610f70565b61401e612a1d565b6001600160a01b0316836001600160a01b0316141580156140585750614042612a1d565b6001600160a01b0316826001600160a01b031614155b801561406d57506001600160a01b0383163014155b801561408257506001600160a01b0382163014155b80156140a757506001600160a01b0383166000908152601d602052604090205460ff16155b80156140cc57506001600160a01b0382166000908152601d602052604090205460ff16155b156141845760205481111561413c5760405162461bcd60e51b815260206004820152603060248201527f506c65617365207472616e7366657220756e64657220746865206d617820747260448201526f185b9cd858dd1a5bdb88185b5bdd5b9d60821b6064820152608401610f70565b601f5460ff16801561415b5750600e546001600160a01b038481169116145b15614184576001600160a01b0382166000908152601c60205260409020805460ff191660011790555b612b1b8383836141c9565b600081848411156141b35760405162461bcd60e51b8152600401610f7091906157d1565b5060006141c08486615c6f565b95945050505050565b6001600160a01b0383166141ef5760405162461bcd60e51b8152600401610f7090615a93565b6001600160a01b0382166142155760405162461bcd60e51b8152600401610f70906157e4565b61425281604051806060016040528060268152602001615d58602691396001600160a01b038616600090815260208190526040902054919061418f565b6001600160a01b0380851660009081526020819052604080822093909355908416815220546142819082613c68565b6001600160a01b038381166000818152602081815260409182902094909455518481529092918616917fddf252ad1be2c89b69c2b068fc378daa952ba7f163c4a11628f55a4df523b3ef9101613ddd565b612b1b8363a9059cbb60e01b84846040516024016142f1929190615713565b60408051601f198184030181529190526020810180516001600160e01b03166001600160e01b031990931692909217909152614ef4565b806001600160a01b03811661438d5760405162461bcd60e51b815260206004820152602560248201527f4d414e494120435348543a20206372656174657220746865207a65726f206164604482015264647265737360d81b6064820152608401610f70565b6001600160a01b0381166000908152601c602052604090205460ff16156143c65760405162461bcd60e51b8152600401610f7090615942565b600f546001600160a01b038281169116148015906143f257506010546001600160a01b03828116911614155b61445f5760405162461bcd60e51b815260206004820152603860248201527f4d414e494120435348543a207661756c7420616e642072657761726473506f6f6044820152776c2063616e6e6f7420636173686f7574207265776172647360401b6064820152608401610f70565b6040516330cd31af60e11b81526000906001600160a01b037f0000000000000000000000000000000000000000000000000000000000000000169063619a635e906144ae9085906004016156ff565b60206040518083038186803b1580156144c657600080fd5b505afa1580156144da573d6000803e3d6000fd5b505050506040513d601f19601f820116820180604052508101906144fe9190615579565b90506000811161456d5760405162461bcd60e51b815260206004820152603460248201527f4d414e494120435348543a20596f7520646f6e2774206861766520656e6f75676044820152731a081c995dd85c99081d1bc818d85cda081bdd5d60621b6064820152608401610f70565b600061458960646125fa6017548561464690919063ffffffff16565b90506145958282614704565b601954909250610100900460ff1680156145b157506000601754115b156145e3576010546145cd906001600160a01b031630836141c9565b600f546145e3906001600160a01b031682614746565b6010546145fa906001600160a01b031684846141c9565b60405163170a62c760e21b81526001600160a01b037f00000000000000000000000000000000000000000000000000000000000000001690635c298b1c906126bf9086906004016156ff565b6000826146555750600061131f565b60006146618385615c50565b90508261466e8583615c30565b146116835760405162461bcd60e51b815260206004820152602160248201527f536166654d6174683a206d756c7469706c69636174696f6e206f766572666c6f6044820152607760f81b6064820152608401610f70565b600061168383836040518060400160405280601a815260200179536166654d6174683a206469766973696f6e206279207a65726f60301b815250614fc6565b600061168383836040518060400160405280601e81526020017f536166654d6174683a207375627472616374696f6e206f766572666c6f77000081525061418f565b4761475082614795565b600061475c4783614704565b6040519091506001600160a01b0385169082156108fc029083906000818181858888f19350505050158015612711573d6000803e3d6000fd5b60408051600280825260608201835260009260208301908036833701905050905030816000815181106147d857634e487b7160e01b600052603260045260246000fd5b6001600160a01b03928316602091820292909201810191909152600d54604080516315ab88c960e31b81529051919093169263ad5c4648926004808301939192829003018186803b15801561482c57600080fd5b505afa158015614840573d6000803e3d6000fd5b505050506040513d601f19601f82011682018060405250810190614864919061528e565b8160018151811061488557634e487b7160e01b600052603260045260246000fd5b6001600160a01b039283166020918202929092010152600d546148ab9130911684613cc5565b600d5460405163791ac94760e01b81526001600160a01b039091169063791ac947906148e4908590600090869030904290600401615b20565b600060405180830381600087803b1580156148fe57600080fd5b505af1158015614912573d6000803e3d6000fd5b505050505050565b6003835111801561492c575060148351105b6149485760405162461bcd60e51b8152600401610f709061584e565b81600414156149ad57806149ad5760405162461bcd60e51b815260206004820152602660248201527f4e4f4445204352454154494f4e3a204f4e4c5920454e41424c45205748454e20604482015265465553494e4760d01b6064820152608401610f70565b33806149cb5760405162461bcd60e51b8152600401610f7090615ad8565b6001600160a01b0381166000908152601c602052604090205460ff1615614a045760405162461bcd60e51b8152600401610f7090615a1c565b600f546001600160a01b03828116911614801590614a3057506010546001600160a01b03828116911614155b614a4c5760405162461bcd60e51b8152600401610f7090615979565b604051632f3cadab60e11b81526004810184905282151560248201526000907f00000000000000000000000000000000000000000000000000000000000000006001600160a01b031690635e795b569060440160206040518083038186803b158015614ab757600080fd5b505afa158015614acb573d6000803e3d6000fd5b505050506040513d601f19601f82011682018060405250810190614aef9190615579565b905080614afb836127a5565b1015614b195760405162461bcd60e51b8152600401610f70906159d0565b6000614b24306127a5565b601a5490915081108015908190614b425750601954610100900460ff165b8015614b51575060195460ff16155b8015614b765750614b60612a1d565b6001600160a01b0316846001600160a01b031614155b8015614b9b57506001600160a01b0384166000908152601e602052604090205460ff16155b15614c2d576019805460ff19166001179055601354600090614bc5906064906125fa908690614646565b601054909150614be09030906001600160a01b0316836141c9565b6000614bfc60646125fa6014548761464690919063ffffffff16565b9050614c0781614dc1565b601054614c20906001600160a01b0316613072306127a5565b50506019805460ff191690555b614c388430856141c9565b8415614c5657601254614c569030906001600160a01b0316856141c9565b604051638ce3bbf760e01b81526001600160a01b037f00000000000000000000000000000000000000000000000000000000000000001690638ce3bbf790614cab9087908b906000908c90829060040161572c565b600060405180830381600087803b158015614cc557600080fd5b505af1158015614cd9573d6000803e3d6000fd5b5050505050505050505050565b6001600160a01b0382166000908152601e602052604090205460ff1615158115151415614d6d5760405162461bcd60e51b815260206004820152602f60248201527f544b4e3a204175746f6d61746564206d61726b6574206d616b6572207061697260448201526e081a5cc8185b1c9958591e481cd95d608a1b6064820152608401610f70565b6001600160a01b0382166000818152601e6020526040808220805460ff191685151590811790915590519092917fffa9187bf1f18bf477bd0ea1bcbb64e93b6a98132473929edfce215cd9b16fab91a35050565b6000614dce8260026146c5565b90506000614ddc8383614704565b905047614de883614795565b6000614df44783614704565b9050614e008382614ff4565b7f17bbfb9a6069321b6ded73bd96327c9e6b7212a5cd51ff219cd61370acafb561848285604051614e3393929190615b90565b60405180910390a15050505050565b6022805433916000919082614e5683615ced565b91905055905060216000836001600160a01b03166001600160a01b0316815260200190815260200160002060405180608001604052804281526020018542614e9e9190615c18565b815260208082019790975260409081019390935281546001818101845560009384529287902082516004909202019081559581015191860191909155908101516002850155606001516003909301929092555050565b6000614f49826040518060400160405280602081526020017f5361666545524332303a206c6f772d6c6576656c2063616c6c206661696c6564815250856001600160a01b03166150ad9092919063ffffffff16565b805190915015612b1b5780806020019051810190614f67919061543d565b612b1b5760405162461bcd60e51b815260206004820152602a60248201527f5361666545524332303a204552433230206f7065726174696f6e20646964206e6044820152691bdd081cdd58d8d9595960b21b6064820152608401610f70565b60008183614fe75760405162461bcd60e51b8152600401610f7091906157d1565b5060006141c08486615c30565b600d5461500c9030906001600160a01b031684613cc5565b600d5460405163f305d71960e01b8152306004820152602481018490526000604482018190526064820181905260848201524260a48201526001600160a01b039091169063f305d71990839060c4016060604051808303818588803b15801561507457600080fd5b505af1158015615088573d6000803e3d6000fd5b50505050506040513d601f19601f820116820180604052508101906127119190615624565b6060613e288484600085856001600160a01b0385163b61510f5760405162461bcd60e51b815260206004820152601d60248201527f416464726573733a2063616c6c20746f206e6f6e2d636f6e74726163740000006044820152606401610f70565b600080866001600160a01b0316858760405161512b91906156e3565b60006040518083038185875af1925050503d8060008114615168576040519150601f19603f3d011682016040523d82523d6000602084013e61516d565b606091505b509150915061517d828286615188565b979650505050505050565b60608315615197575081611683565b8251156151a75782518084602001fd5b8160405162461bcd60e51b8152600401610f7091906157d1565b8280548282559060005260206000209081019282156151fc579160200282015b828111156151fc5782518255916020019190600101906151e1565b5061520892915061520c565b5090565b5b80821115615208576000815560010161520d565b600082601f830112615231578081fd5b813561524461523f82615bf1565b615bc1565b818152846020838601011115615258578283fd5b816020850160208301379081016020019190915292915050565b600060208284031215615283578081fd5b813561168381615d34565b60006020828403121561529f578081fd5b815161168381615d34565b600080604083850312156152bc578081fd5b82356152c781615d34565b915060208301356152d781615d34565b809150509250929050565b6000806000606084860312156152f6578081fd5b833561530181615d34565b9250602084013561531181615d34565b929592945050506040919091013590565b60008060408385031215615334578182fd5b823561533f81615d34565b915060208301356152d781615d49565b60008060408385031215615361578182fd5b823561536c81615d34565b946020939093013593505050565b6000602080838503121561538c578182fd5b82356001600160401b03808211156153a2578384fd5b818501915085601f8301126153b5578384fd5b8135818111156153c7576153c7615d1e565b8060051b91506153d8848301615bc1565b8181528481019084860184860187018a10156153f2578788fd5b8795505b838610156154145780358352600195909501949186019186016153f6565b5098975050505050505050565b600060208284031215615432578081fd5b813561168381615d49565b60006020828403121561544e578081fd5b815161168381615d49565b600080604083850312156152bc578182fd5b60006020828403121561547c578081fd5b81516001600160401b03811115615491578182fd5b8201601f810184136154a1578182fd5b80516154af61523f82615bf1565b8181528560208385010111156154c3578384fd5b6141c0826020830160208601615c86565b600080604083850312156154e6578182fd5b82356001600160401b038111156154fb578283fd5b61550785828601615221565b95602094909401359450505050565b60008060006060848603121561552a578081fd5b83356001600160401b0381111561553f578182fd5b61554b86828701615221565b9660208601359650604090950135949350505050565b600060208284031215615572578081fd5b5035919050565b60006020828403121561558a578081fd5b5051919050565b600080604083850312156155a3578182fd5b8235915060208301356152d781615d49565b600080604083850312156155c7578182fd5b8235915060208301356001600160401b038111156155e3578182fd5b6155ef85828601615221565b9150509250929050565b60008060006060848603121561560d578081fd5b505081359360208301359350604090920135919050565b600080600060608486031215615638578081fd5b8351925060208401519150604084015190509250925092565b60008060008060808587031215615666578182fd5b5050823594602084013594506040840135936060013592509050565b60008060008060808587031215615697578182fd5b505082516020840151604085015160609095015191969095509092509050565b600081518084526156cf816020860160208601615c86565b601f01601f19169290920160200192915050565b600082516156f5818460208701615c86565b9190910192915050565b6001600160a01b0391909116815260200190565b6001600160a01b03929092168252602082015260400190565b6001600160a01b038616815260a060208201819052600090615750908301876156b7565b604083019590955250606081019290925260809091015292915050565b602080825282518282018190526000919060409081850190868401855b828110156157c45781518051855286810151878601528581015186860152606090810151908501526080909301929085019060010161578a565b5091979650505050505050565b60208152600061168360208301846156b7565b60208082526023908201527f45524332303a207472616e7366657220746f20746865207a65726f206164647260408201526265737360e81b606082015260800190565b6020808252600d908201526c2727902727a2229027aba722a960991b604082015260600190565b6020808252818101527f4e4f4445204352454154494f4e3a204e414d452053495a4520494e56414c4944604082015260600190565b60208082526014908201527353454e4445522043414e2754204245205a45524f60601b604082015260600190565b60208082526026908201527f5061796d656e7453706c69747465723a206163636f756e7420686173206e6f2060408201526573686172657360d01b606082015260800190565b6020808252602b908201527f5061796d656e7453706c69747465723a206163636f756e74206973206e6f742060408201526a191d59481c185e5b595b9d60aa1b606082015260800190565b6020808252601f908201527f4d414e494120435348543a20426c61636b6c6973746564206164647265737300604082015260600190565b60208082526037908201527f4e4f4445204352454154494f4e3a207661756c7420616e642072657761726473604082015276506f6f6c2063616e6e6f7420637265617465206e6f646560481b606082015260800190565b6020808252602c908201527f4e4f4445204352454154494f4e3a2042616c616e636520746f6f206c6f77206660408201526b37b91031b932b0ba34b7b71760a11b606082015260800190565b60208082526022908201527f4e4f4445204352454154494f4e3a20426c61636b6c6973746564206164647265604082015261737360f01b606082015260800190565b6020808252818101527f4f776e61626c653a2063616c6c6572206973206e6f7420746865206f776e6572604082015260600190565b60208082526025908201527f45524332303a207472616e736665722066726f6d20746865207a65726f206164604082015264647265737360d81b606082015260800190565b60208082526028908201527f4e4f4445204352454154494f4e3a20206372656174657220746865207a65726f604082015267206164647265737360c01b606082015260800190565b600060a082018783526020878185015260a0604085015281875180845260c0860191508289019350845b81811015615b6f5784516001600160a01b031683529383019391830191600101615b4a565b50506001600160a01b03969096166060850152505050608001529392505050565b9283526020830191909152604082015260600190565b93845260208401929092526040830152606082015260800190565b604051601f8201601f191681016001600160401b0381118282101715615be957615be9615d1e565b604052919050565b60006001600160401b03821115615c0a57615c0a615d1e565b50601f01601f191660200190565b60008219821115615c2b57615c2b615d08565b500190565b600082615c4b57634e487b7160e01b81526012600452602481fd5b500490565b6000816000190483118215151615615c6a57615c6a615d08565b500290565b600082821015615c8157615c81615d08565b500390565b60005b83811015615ca1578181015183820152602001615c89565b8381111561182b5750506000910152565b600181811c90821680615cc657607f821691505b60208210811415615ce757634e487b7160e01b600052602260045260246000fd5b50919050565b6000600019821415615d0157615d01615d08565b5060010190565b634e487b7160e01b600052601160045260246000fd5b634e487b7160e01b600052604160045260246000fd5b6001600160a01b0381168114611c4e57600080fd5b8015158114611c4e57600080fdfe45524332303a207472616e7366657220616d6f756e7420657863656564732062616c616e636545524332303a207472616e7366657220616d6f756e74206578636565647320616c6c6f77616e63658be0079c531659141344cd1fd0a4f28419497f9722a3daafe3b4186f6b6457e045524332303a2064656372656173656420616c6c6f77616e63652062656c6f77207a65726fa26469706673582212203079236a2cb995793d2c34d816f621721a348007babf4f504b062c69e052f36664736f6c63430008040033",
  "linkReferences": {},
  "deployedLinkReferences": {}
}